{"abi":[{"type":"function","name":"addPerson","inputs":[{"name":"_name","type":"string","internalType":"string"},{"name":"_favoriteNumber","type":"uint256","internalType":"uint256"}],"outputs":[],"stateMutability":"nonpayable"},{"type":"function","name":"nameToFavoriteNumber","inputs":[{"name":"","type":"string","internalType":"string"}],"outputs":[{"name":"","type":"uint256","internalType":"uint256"}],"stateMutability":"view"},{"type":"function","name":"people","inputs":[{"name":"","type":"uint256","internalType":"uint256"}],"outputs":[{"name":"name","type":"string","internalType":"string"},{"name":"favoriteNumber","type":"uint256","internalType":"uint256"}],"stateMutability":"view"},{"type":"function","name":"removeLastPerson","inputs":[],"outputs":[],"stateMutability":"nonpayable"},{"type":"function","name":"retrieve","inputs":[],"outputs":[{"name":"","type":"uint256","internalType":"uint256"}],"stateMutability":"view"},{"type":"function","name":"store","inputs":[{"name":"_favoriteNumber","type":"uint256","internalType":"uint256"}],"outputs":[],"stateMutability":"nonpayable"}],"bytecode":{"object":"0x6080604052348015600f57600080fd5b506106228061001f6000396000f3fe608060405234801561001057600080fd5b50600436106100625760003560e01c80632e64cec1146100675780636057361d1461007e5780636f760f41146100935780638bab8dd5146100a65780639e7a13ad146100d1578063b15962bc146100f2575b600080fd5b6001545b6040519081526020015b60405180910390f35b61009161008c3660046102d3565b600155565b005b6100916100a1366004610391565b6100fa565b61006b6100b43660046103d6565b805160208183018101805160008252928201919093012091525481565b6100e46100df3660046102d3565b610182565b604051610075929190610437565b61009161023e565b6040805180820190915282815260208101829052600280546001810182556000829052825191027f405787fa12a823e0f2b7631cc41b3ba8828b3321ca811111fa75cd3aa3bb5ace0190819061015090826104fb565b506020820151816001015550508060008360405161016e91906105ba565b908152604051908190036020019020555050565b6002818154811061019257600080fd5b90600052602060002090600202016000915090508060000180546101b590610472565b80601f01602080910402602001604051908101604052809291908181526020018280546101e190610472565b801561022e5780601f106102035761010080835404028352916020019161022e565b820191906000526020600020905b81548152906001019060200180831161021157829003601f168201915b5050505050908060010154905082565b600280548061024f5761024f6105d6565b6000828152602081206000199092019160028302019061026f828261027d565b600182016000905550509055565b50805461028990610472565b6000825580601f10610299575050565b601f0160209004906000526020600020908101906102b791906102ba565b50565b5b808211156102cf57600081556001016102bb565b5090565b6000602082840312156102e557600080fd5b5035919050565b634e487b7160e01b600052604160045260246000fd5b600082601f83011261031357600080fd5b813567ffffffffffffffff81111561032d5761032d6102ec565b604051601f8201601f19908116603f0116810167ffffffffffffffff8111828210171561035c5761035c6102ec565b60405281815283820160200185101561037457600080fd5b816020850160208301376000918101602001919091529392505050565b600080604083850312156103a457600080fd5b823567ffffffffffffffff8111156103bb57600080fd5b6103c785828601610302565b95602094909401359450505050565b6000602082840312156103e857600080fd5b813567ffffffffffffffff8111156103ff57600080fd5b61040b84828501610302565b949350505050565b60005b8381101561042e578181015183820152602001610416565b50506000910152565b6040815260008351806040840152610456816060850160208801610413565b602083019390935250601f91909101601f191601606001919050565b600181811c9082168061048657607f821691505b6020821081036104a657634e487b7160e01b600052602260045260246000fd5b50919050565b601f8211156104f657806000526020600020601f840160051c810160208510156104d35750805b601f840160051c820191505b818110156104f357600081556001016104df565b50505b505050565b815167ffffffffffffffff811115610515576105156102ec565b610529816105238454610472565b846104ac565b6020601f82116001811461055d57600083156105455750848201515b600019600385901b1c1916600184901b1784556104f3565b600084815260208120601f198516915b8281101561058d578785015182556020948501946001909201910161056d565b50848210156105ab5786840151600019600387901b60f8161c191681555b50505050600190811b01905550565b600082516105cc818460208701610413565b9190910192915050565b634e487b7160e01b600052603160045260246000fdfea2646970667358221220a7cb1e0f0b89278c0840139f26b3c4b39b168cdaa0c8e125386a16ecceb61eb364736f6c634300081a0033","linkReferences":{}},"methodIdentifiers":{"addPerson(string,uint256)":"6f760f41","nameToFavoriteNumber(string)":"8bab8dd5","people(uint256)":"9e7a13ad","removeLastPerson()":"b15962bc","retrieve()":"2e64cec1","store(uint256)":"6057361d"},"id":0}