{"abi":[{"type":"function","name":"addPerson","inputs":[{"name":"_name","type":"string","internalType":"string"},{"name":"_favoriteNumber","type":"uint16","internalType":"uint16"}],"outputs":[],"stateMutability":"nonpayable"},{"type":"function","name":"nameToFavoriteNumber","inputs":[{"name":"","type":"string","internalType":"string"}],"outputs":[{"name":"","type":"uint16","internalType":"uint16"}],"stateMutability":"view"},{"type":"function","name":"people","inputs":[{"name":"","type":"uint256","internalType":"uint256"}],"outputs":[{"name":"name","type":"string","internalType":"string"},{"name":"favoriteNumber","type":"uint16","internalType":"uint16"}],"stateMutability":"view"},{"type":"function","name":"removeLastPerson","inputs":[],"outputs":[],"stateMutability":"nonpayable"},{"type":"function","name":"retrieve","inputs":[],"outputs":[{"name":"","type":"uint16","internalType":"uint16"}],"stateMutability":"view"},{"type":"function","name":"store","inputs":[{"name":"_favoriteNumber","type":"uint16","internalType":"uint16"}],"outputs":[],"stateMutability":"nonpayable"}],"bytecode":{"object":"0x6080604052348015600f57600080fd5b506106c08061001f6000396000f3fe608060405234801561001057600080fd5b50600436106100625760003560e01c80632e64cec1146100675780638bab8dd5146100875780639e7a13ad146100b6578063b15962bc146100d7578063f22028be146100e1578063fafcd1a5146100f4575b600080fd5b60015461ffff165b60405161ffff90911681526020015b60405180910390f35b61006f6100953660046103d0565b805160208183018101805160008252928201919093012091525461ffff1681565b6100c96100c436600461040d565b61011a565b60405161007e92919061044a565b6100df6101da565b005b6100df6100ef3660046104a0565b61021c565b6100df6101023660046104ee565b6001805461ffff191661ffff92909216919091179055565b6002818154811061012a57600080fd5b906000526020600020906002020160009150905080600001805461014d90610510565b80601f016020809104026020016040519081016040528092919081815260200182805461017990610510565b80156101c65780601f1061019b576101008083540402835291602001916101c6565b820191906000526020600020905b8154815290600101906020018083116101a957829003601f168201915b5050506001909301549192505061ffff1682565b60028054806101eb576101eb61054a565b6000828152602081206000199092019160028302019061020b82826102d5565b50600101805461ffff191690559055565b6040805180820190915282815261ffff82166020820152600280546001810182556000829052825191027f405787fa12a823e0f2b7631cc41b3ba8828b3321ca811111fa75cd3aa3bb5ace0190819061027590826105af565b5060208201518160010160006101000a81548161ffff021916908361ffff1602179055505050806000836040516102ac919061066e565b908152604051908190036020019020805461ffff9290921661ffff199092169190911790555050565b5080546102e190610510565b6000825580601f106102f1575050565b601f01602090049060005260206000209081019061030f9190610312565b50565b5b808211156103275760008155600101610313565b5090565b634e487b7160e01b600052604160045260246000fd5b600082601f83011261035257600080fd5b813567ffffffffffffffff81111561036c5761036c61032b565b604051601f8201601f19908116603f0116810167ffffffffffffffff8111828210171561039b5761039b61032b565b6040528181528382016020018510156103b357600080fd5b816020850160208301376000918101602001919091529392505050565b6000602082840312156103e257600080fd5b813567ffffffffffffffff8111156103f957600080fd5b61040584828501610341565b949350505050565b60006020828403121561041f57600080fd5b5035919050565b60005b83811015610441578181015183820152602001610429565b50506000910152565b6040815260008351806040840152610469816060850160208801610426565b61ffff93909316602083015250601f91909101601f191601606001919050565b803561ffff8116811461049b57600080fd5b919050565b600080604083850312156104b357600080fd5b823567ffffffffffffffff8111156104ca57600080fd5b6104d685828601610341565b9250506104e560208401610489565b90509250929050565b60006020828403121561050057600080fd5b61050982610489565b9392505050565b600181811c9082168061052457607f821691505b60208210810361054457634e487b7160e01b600052602260045260246000fd5b50919050565b634e487b7160e01b600052603160045260246000fd5b601f8211156105aa57806000526020600020601f840160051c810160208510156105875750805b601f840160051c820191505b818110156105a75760008155600101610593565b50505b505050565b815167ffffffffffffffff8111156105c9576105c961032b565b6105dd816105d78454610510565b84610560565b6020601f82116001811461061157600083156105f95750848201515b600019600385901b1c1916600184901b1784556105a7565b600084815260208120601f198516915b828110156106415787850151825560209485019460019092019101610621565b508482101561065f5786840151600019600387901b60f8161c191681555b50505050600190811b01905550565b60008251610680818460208701610426565b919091019291505056fea264697066735822122087d8f38e287cc3a9a1baaa8f14edf9c7891a3b212070cc8bc422d125877a866764736f6c634300081a0033","linkReferences":{}},"methodIdentifiers":{"addPerson(string,uint16)":"f22028be","nameToFavoriteNumber(string)":"8bab8dd5","people(uint256)":"9e7a13ad","removeLastPerson()":"b15962bc","retrieve()":"2e64cec1","store(uint16)":"fafcd1a5"},"id":0}