{"abi":[{"type":"constructor","inputs":[{"name":"_verifier","type":"address","internalType":"address"},{"name":"_fibonacciProgramVKey","type":"bytes32","internalType":"bytes32"}],"stateMutability":"nonpayable"},{"type":"function","name":"fibonacciProgramVKey","inputs":[],"outputs":[{"name":"","type":"bytes32","internalType":"bytes32"}],"stateMutability":"view"},{"type":"function","name":"verifier","inputs":[],"outputs":[{"name":"","type":"address","internalType":"address"}],"stateMutability":"view"},{"type":"function","name":"verifyFibonacciProof","inputs":[{"name":"_publicValues","type":"bytes","internalType":"bytes"},{"name":"_proofBytes","type":"bytes","internalType":"bytes"}],"outputs":[{"name":"","type":"uint32","internalType":"uint32"},{"name":"","type":"uint32","internalType":"uint32"},{"name":"","type":"uint32","internalType":"uint32"}],"stateMutability":"view"}],"bytecode":{"object":"0x6080604052348015600f57600080fd5b506040516103e43803806103e4833981016040819052602c916054565b600080546001600160a01b0319166001600160a01b039390931692909217909155600155608c565b60008060408385031215606657600080fd5b82516001600160a01b0381168114607c57600080fd5b6020939093015192949293505050565b6103498061009b6000396000f3fe608060405234801561001057600080fd5b50600436106100415760003560e01c806321bd7afc146100465780632b7ac3f314610085578063ab26fbd1146100b0575b600080fd5b6100596100543660046101ab565b6100c7565b6040805163ffffffff948516815292841660208401529216918101919091526060015b60405180910390f35b600054610098906001600160a01b031681565b6040516001600160a01b03909116815260200161007c565b6100b960015481565b60405190815260200161007c565b6000805460015460405163020a49e360e51b8152839283926001600160a01b03909116916341493c6091610105918b908b908b908b90600401610245565b60006040518083038186803b15801561011d57600080fd5b505afa158015610131573d6000803e3d6000fd5b506000925061014591505087890189610297565b80516020820151604090920151909a919950975095505050505050565b60008083601f84011261017457600080fd5b50813567ffffffffffffffff81111561018c57600080fd5b6020830191508360208285010111156101a457600080fd5b9250929050565b600080600080604085870312156101c157600080fd5b843567ffffffffffffffff8111156101d857600080fd5b6101e487828801610162565b909550935050602085013567ffffffffffffffff81111561020457600080fd5b61021087828801610162565b95989497509550505050565b81835281816020850137506000828201602090810191909152601f909101601f19169091010190565b85815260606020820152600061025f60608301868861021c565b828103604084015261027281858761021c565b98975050505050505050565b803563ffffffff8116811461029257600080fd5b919050565b600060608284031280156102aa57600080fd5b506040516060810167ffffffffffffffff811182821017156102dc57634e487b7160e01b600052604160045260246000fd5b6040526102e88361027e565b81526102f66020840161027e565b60208201526103076040840161027e565b6040820152939250505056fea2646970667358221220879ebe6e6dfaad2c2c75333fb5a2bfa63c3e72e9226484732cf95d14d884878064736f6c634300081a0033","linkReferences":{}},"methodIdentifiers":{"fibonacciProgramVKey()":"ab26fbd1","verifier()":"2b7ac3f3","verifyFibonacciProof(bytes,bytes)":"21bd7afc"},"id":1}