{"abi":[{"type":"constructor","inputs":[{"name":"_verifier","type":"address","internalType":"address"},{"name":"_fibonacciProgramVKey","type":"bytes32","internalType":"bytes32"}],"stateMutability":"nonpayable"},{"type":"function","name":"fibonacciProgramVKey","inputs":[],"outputs":[{"name":"","type":"bytes32","internalType":"bytes32"}],"stateMutability":"view"},{"type":"function","name":"verifier","inputs":[],"outputs":[{"name":"","type":"address","internalType":"address"}],"stateMutability":"view"},{"type":"function","name":"verifyFibonacciProof","inputs":[{"name":"_publicValues","type":"bytes","internalType":"bytes"},{"name":"_proofBytes","type":"bytes","internalType":"bytes"}],"outputs":[{"name":"","type":"uint32","internalType":"uint32"},{"name":"","type":"uint32","internalType":"uint32"},{"name":"","type":"uint32","internalType":"uint32"}],"stateMutability":"nonpayable"},{"type":"event","name":"ProofVerified","inputs":[],"anonymous":false}],"bytecode":{"object":"0x6080604052348015600f57600080fd5b5060405161040b38038061040b833981016040819052602c916054565b600080546001600160a01b0319166001600160a01b039390931692909217909155600155608c565b60008060408385031215606657600080fd5b82516001600160a01b0381168114607c57600080fd5b6020939093015192949293505050565b6103708061009b6000396000f3fe608060405234801561001057600080fd5b50600436106100415760003560e01c806321bd7afc146100465780632b7ac3f314610085578063ab26fbd1146100b0575b600080fd5b6100596100543660046101d2565b6100c7565b6040805163ffffffff948516815292841660208401529216918101919091526060015b60405180910390f35b600054610098906001600160a01b031681565b6040516001600160a01b03909116815260200161007c565b6100b960015481565b60405190815260200161007c565b6000805460015460405163020a49e360e51b8152839283926001600160a01b03909116916341493c6091610105918b908b908b908b9060040161026c565b60006040518083038186803b15801561011d57600080fd5b505afa158015610131573d6000803e3d6000fd5b50506040517f11d5551d2f95e16682d43f78810249ea8652665590de5166256c9f8fc60a789c925060009150a1600061016c878901896102be565b80516020820151604090920151909a919950975095505050505050565b60008083601f84011261019b57600080fd5b50813567ffffffffffffffff8111156101b357600080fd5b6020830191508360208285010111156101cb57600080fd5b9250929050565b600080600080604085870312156101e857600080fd5b843567ffffffffffffffff8111156101ff57600080fd5b61020b87828801610189565b909550935050602085013567ffffffffffffffff81111561022b57600080fd5b61023787828801610189565b95989497509550505050565b81835281816020850137506000828201602090810191909152601f909101601f19169091010190565b858152606060208201526000610286606083018688610243565b8281036040840152610299818587610243565b98975050505050505050565b803563ffffffff811681146102b957600080fd5b919050565b600060608284031280156102d157600080fd5b506040516060810167ffffffffffffffff8111828210171561030357634e487b7160e01b600052604160045260246000fd5b60405261030f836102a5565b815261031d602084016102a5565b602082015261032e604084016102a5565b6040820152939250505056fea2646970667358221220dcfc84712a8e7633a6b5f3f5f209ec02794affa71de3b006acfb75aede9c48ff64736f6c634300081a0033","linkReferences":{}},"methodIdentifiers":{"fibonacciProgramVKey()":"ab26fbd1","verifier()":"2b7ac3f3","verifyFibonacciProof(bytes,bytes)":"21bd7afc"},"id":1}